{
  "contractName": "Lottery",
  "abi": [
    {
      "inputs": [
        {
          "internalType": "address",
          "name": "_token",
          "type": "address"
        }
      ],
      "stateMutability": "nonpayable",
      "type": "constructor"
    },
    {
      "anonymous": false,
      "inputs": [],
      "name": "AllTicketsBought",
      "type": "event"
    },
    {
      "anonymous": false,
      "inputs": [
        {
          "indexed": false,
          "internalType": "uint256",
          "name": "nextSpin",
          "type": "uint256"
        }
      ],
      "name": "NewSpinDate",
      "type": "event"
    },
    {
      "anonymous": false,
      "inputs": [
        {
          "indexed": false,
          "internalType": "address",
          "name": "userAddress",
          "type": "address"
        }
      ],
      "name": "SpinComplete",
      "type": "event"
    },
    {
      "inputs": [],
      "name": "casino",
      "outputs": [
        {
          "internalType": "address",
          "name": "",
          "type": "address"
        }
      ],
      "stateMutability": "view",
      "type": "function",
      "constant": true
    },
    {
      "inputs": [],
      "name": "chroma",
      "outputs": [
        {
          "internalType": "contract Chroma",
          "name": "",
          "type": "address"
        }
      ],
      "stateMutability": "view",
      "type": "function",
      "constant": true
    },
    {
      "inputs": [],
      "name": "lastSpin",
      "outputs": [
        {
          "internalType": "uint256",
          "name": "",
          "type": "uint256"
        }
      ],
      "stateMutability": "view",
      "type": "function",
      "constant": true
    },
    {
      "inputs": [],
      "name": "latestWinner",
      "outputs": [
        {
          "internalType": "address",
          "name": "",
          "type": "address"
        }
      ],
      "stateMutability": "view",
      "type": "function",
      "constant": true
    },
    {
      "inputs": [],
      "name": "maxTickets",
      "outputs": [
        {
          "internalType": "uint256",
          "name": "",
          "type": "uint256"
        }
      ],
      "stateMutability": "view",
      "type": "function",
      "constant": true
    },
    {
      "inputs": [],
      "name": "name",
      "outputs": [
        {
          "internalType": "string",
          "name": "",
          "type": "string"
        }
      ],
      "stateMutability": "view",
      "type": "function",
      "constant": true
    },
    {
      "inputs": [],
      "name": "nextSpin",
      "outputs": [
        {
          "internalType": "uint256",
          "name": "",
          "type": "uint256"
        }
      ],
      "stateMutability": "view",
      "type": "function",
      "constant": true
    },
    {
      "inputs": [],
      "name": "owner",
      "outputs": [
        {
          "internalType": "address",
          "name": "",
          "type": "address"
        }
      ],
      "stateMutability": "view",
      "type": "function",
      "constant": true
    },
    {
      "inputs": [
        {
          "internalType": "bytes32",
          "name": "requestId",
          "type": "bytes32"
        },
        {
          "internalType": "uint256",
          "name": "randomness",
          "type": "uint256"
        }
      ],
      "name": "rawFulfillRandomness",
      "outputs": [],
      "stateMutability": "nonpayable",
      "type": "function"
    },
    {
      "inputs": [],
      "name": "remainingTickets",
      "outputs": [
        {
          "internalType": "uint256",
          "name": "",
          "type": "uint256"
        }
      ],
      "stateMutability": "view",
      "type": "function",
      "constant": true
    },
    {
      "inputs": [],
      "name": "ticketCount",
      "outputs": [
        {
          "internalType": "uint256",
          "name": "",
          "type": "uint256"
        }
      ],
      "stateMutability": "view",
      "type": "function",
      "constant": true
    },
    {
      "inputs": [],
      "name": "ticketPrice",
      "outputs": [
        {
          "internalType": "uint256",
          "name": "",
          "type": "uint256"
        }
      ],
      "stateMutability": "view",
      "type": "function",
      "constant": true
    },
    {
      "inputs": [
        {
          "internalType": "uint256",
          "name": "",
          "type": "uint256"
        }
      ],
      "name": "tickets",
      "outputs": [
        {
          "internalType": "address payable",
          "name": "",
          "type": "address"
        }
      ],
      "stateMutability": "view",
      "type": "function",
      "constant": true
    },
    {
      "inputs": [
        {
          "internalType": "address",
          "name": "",
          "type": "address"
        }
      ],
      "name": "winnings",
      "outputs": [
        {
          "internalType": "uint256",
          "name": "",
          "type": "uint256"
        }
      ],
      "stateMutability": "view",
      "type": "function",
      "constant": true
    },
    {
      "inputs": [
        {
          "internalType": "uint256",
          "name": "newMax",
          "type": "uint256"
        }
      ],
      "name": "setNumTickets",
      "outputs": [],
      "stateMutability": "nonpayable",
      "type": "function"
    },
    {
      "inputs": [],
      "name": "getPotAmount",
      "outputs": [
        {
          "internalType": "uint256",
          "name": "",
          "type": "uint256"
        }
      ],
      "stateMutability": "view",
      "type": "function",
      "constant": true
    },
    {
      "inputs": [
        {
          "internalType": "uint256",
          "name": "amountOfTickets",
          "type": "uint256"
        }
      ],
      "name": "buyTicket",
      "outputs": [],
      "stateMutability": "nonpayable",
      "type": "function"
    },
    {
      "inputs": [],
      "name": "Withdraw",
      "outputs": [],
      "stateMutability": "nonpayable",
      "type": "function"
    },
    {
      "inputs": [],
      "name": "numTicketsBought",
      "outputs": [
        {
          "internalType": "uint256",
          "name": "",
          "type": "uint256"
        }
      ],
      "stateMutability": "view",
      "type": "function",
      "constant": true
    },
    {
      "inputs": [],
      "name": "checkBalance",
      "outputs": [
        {
          "internalType": "uint256",
          "name": "",
          "type": "uint256"
        }
      ],
      "stateMutability": "view",
      "type": "function",
      "constant": true
    },
    {
      "inputs": [],
      "name": "upTime",
      "outputs": [],
      "stateMutability": "nonpayable",
      "type": "function"
    },
    {
      "inputs": [],
      "name": "requestRandomness",
      "outputs": [],
      "stateMutability": "nonpayable",
      "type": "function"
    }
  ],
  "bytecode": "0x60c06040526040518060400160405280600781526020017f4c6f74746572790000000000000000000000000000000000000000000000000081525060089080519060200190620000519291906200025d565b5060646009556000600a556000600b5560f04201600d55683635c9adc5dea00000600f553480156200008257600080fd5b5060405162001bc438038062001bc483398181016040526020811015620000a857600080fd5b8101908080519060200190929190505050738c7382f9d8f56b33781fe506e897a4f1e2d1725573326c977e6efc84e512bb9c30f76e30c160ed06fb8173ffffffffffffffffffffffffffffffffffffffff1660a08173ffffffffffffffffffffffffffffffffffffffff1660601b815250508073ffffffffffffffffffffffffffffffffffffffff1660808173ffffffffffffffffffffffffffffffffffffffff1660601b8152505050507f6e75b569a01ef56d18cab6a8e71e6600d6ce853834d4a5748b720d06f878b3a460001b600381905550655af3107a400060048190555080600560006101000a81548173ffffffffffffffffffffffffffffffffffffffff021916908373ffffffffffffffffffffffffffffffffffffffff16021790555030600660006101000a81548173ffffffffffffffffffffffffffffffffffffffff021916908373ffffffffffffffffffffffffffffffffffffffff16021790555033600760006101000a81548173ffffffffffffffffffffffffffffffffffffffff021916908373ffffffffffffffffffffffffffffffffffffffff160217905550600954600a81905550506200030c565b828054600181600116156101000203166002900490600052602060002090601f016020900481019282601f10620002a057805160ff1916838001178555620002d1565b82800160010185558215620002d1579182015b82811115620002d0578251825591602001919060010190620002b3565b5b509050620002e09190620002e4565b5090565b6200030991905b8082111562000305576000816000905550600101620002eb565b5090565b90565b60805160601c60a05160601c6118846200034060003980610cc752806114a8525080611329528061146c52506118846000f3fe608060405234801561001057600080fd5b50600436106101425760003560e01c80638da5cb5b116100b8578063b77a15091161007c578063b77a150914610462578063c71daccb14610490578063cfbd900f146104ae578063d1425c61146104cc578063ea3a149914610516578063f8413b071461056e57610142565b80638da5cb5b1461036e5780639403e8dd146103b857806394985ddd146104025780639b8947031461043a578063b10fb2ba1461045857610142565b80634e01b63f1161010a5780634e01b63f1461026e57806350b447121461028c57806357ea89b6146102fa5780635d50483214610304578063638989881461032257806367dd74ca1461034057610142565b806306ef53e01461014757806306fdde03146101915780631209b1f6146102145780633665a93a146102325780634a4845f714610250575b600080fd5b61014f610578565b604051808273ffffffffffffffffffffffffffffffffffffffff1673ffffffffffffffffffffffffffffffffffffffff16815260200191505060405180910390f35b61019961059e565b6040518080602001828103825283818151815260200191508051906020019080838360005b838110156101d95780820151818401526020810190506101be565b50505050905090810190601f1680156102065780820380516001836020036101000a031916815260200191505b509250505060405180910390f35b61021c61063c565b6040518082815260200191505060405180910390f35b61023a610642565b6040518082815260200191505060405180910390f35b6102586106e5565b6040518082815260200191505060405180910390f35b6102766106eb565b6040518082815260200191505060405180910390f35b6102b8600480360360208110156102a257600080fd5b81019080803590602001909291905050506106f1565b604051808273ffffffffffffffffffffffffffffffffffffffff1673ffffffffffffffffffffffffffffffffffffffff16815260200191505060405180910390f35b61030261072d565b005b61030c610961565b6040518082815260200191505060405180910390f35b61032a610967565b6040518082815260200191505060405180910390f35b61036c6004803603602081101561035657600080fd5b8101908080359060200190929190505050610982565b005b610376610c79565b604051808273ffffffffffffffffffffffffffffffffffffffff1673ffffffffffffffffffffffffffffffffffffffff16815260200191505060405180910390f35b6103c0610c9f565b604051808273ffffffffffffffffffffffffffffffffffffffff1673ffffffffffffffffffffffffffffffffffffffff16815260200191505060405180910390f35b6104386004803603604081101561041857600080fd5b810190808035906020019092919080359060200190929190505050610cc5565b005b610442610d94565b6040518082815260200191505060405180910390f35b610460610d9a565b005b61048e6004803603602081101561047857600080fd5b8101908080359060200190929190505050610e4c565b005b610498610efc565b6040518082815260200191505060405180910390f35b6104b6610f43565b6040518082815260200191505060405180910390f35b6104d4610f49565b604051808273ffffffffffffffffffffffffffffffffffffffff1673ffffffffffffffffffffffffffffffffffffffff16815260200191505060405180910390f35b6105586004803603602081101561052c57600080fd5b81019080803573ffffffffffffffffffffffffffffffffffffffff169060200190929190505050610f6f565b6040518082815260200191505060405180910390f35b610576610f87565b005b600e60009054906101000a900473ffffffffffffffffffffffffffffffffffffffff1681565b60088054600181600116156101000203166002900480601f0160208091040260200160405190810160405280929190818152602001828054600181600116156101000203166002900480156106345780601f1061060957610100808354040283529160200191610634565b820191906000526020600020905b81548152906001019060200180831161061757829003601f168201915b505050505081565b600f5481565b6000806000905060008090505b6002805490508110156106dd573373ffffffffffffffffffffffffffffffffffffffff166002828154811061068057fe5b9060005260206000200160009054906101000a900473ffffffffffffffffffffffffffffffffffffffff1673ffffffffffffffffffffffffffffffffffffffff1614156106d05781806001019250505b808060010191505061064f565b508091505090565b600d5481565b600c5481565b600281815481106106fe57fe5b906000526020600020016000915054906101000a900473ffffffffffffffffffffffffffffffffffffffff1681565b6000600160003373ffffffffffffffffffffffffffffffffffffffff1673ffffffffffffffffffffffffffffffffffffffff168152602001908152602001600020541161077957600080fd5b6000600160003373ffffffffffffffffffffffffffffffffffffffff1673ffffffffffffffffffffffffffffffffffffffff1681526020019081526020016000205490506000600560009054906101000a900473ffffffffffffffffffffffffffffffffffffffff1673ffffffffffffffffffffffffffffffffffffffff1663a9059cbb33846040518363ffffffff1660e01b8152600401808373ffffffffffffffffffffffffffffffffffffffff1673ffffffffffffffffffffffffffffffffffffffff16815260200182815260200192505050602060405180830381600087803b15801561086857600080fd5b505af115801561087c573d6000803e3d6000fd5b505050506040513d602081101561089257600080fd5b8101908080519060200190929190505050905080610918576040517f08c379a00000000000000000000000000000000000000000000000000000000081526004018080602001828103825260168152602001807f4348524f4d41207472616e73666572206661696c65640000000000000000000081525060200191505060405180910390fd5b6000600160003373ffffffffffffffffffffffffffffffffffffffff1673ffffffffffffffffffffffffffffffffffffffff168152602001908152602001600020819055505050565b600a5481565b60006064605f600b54600f5402028161097c57fe5b04905090565b600a5481111561099157600080fd5b6000600b5414156109e05760784201600d819055507f628efbabe362c47f9209473e8aa26a62530cbfc05f3fc0f91d2e1a8c2a3107ef600d546040518082815260200191505060405180910390a15b6000600560009054906101000a900473ffffffffffffffffffffffffffffffffffffffff1673ffffffffffffffffffffffffffffffffffffffff166323b872dd33600660009054906101000a900473ffffffffffffffffffffffffffffffffffffffff16600f546040518463ffffffff1660e01b8152600401808473ffffffffffffffffffffffffffffffffffffffff1673ffffffffffffffffffffffffffffffffffffffff1681526020018373ffffffffffffffffffffffffffffffffffffffff1673ffffffffffffffffffffffffffffffffffffffff1681526020018281526020019350505050602060405180830381600087803b158015610ae357600080fd5b505af1158015610af7573d6000803e3d6000fd5b505050506040513d6020811015610b0d57600080fd5b8101908080519060200190929190505050905080610b93576040517f08c379a00000000000000000000000000000000000000000000000000000000081526004018080602001828103825260168152602001807f4348524f4d41207472616e73666572206661696c65640000000000000000000081525060200191505060405180910390fd5b81600a6000828254039250508190555060008090505b82811015610c33576002339080600181540180825580915050600190039060005260206000200160009091909190916101000a81548173ffffffffffffffffffffffffffffffffffffffff021916908373ffffffffffffffffffffffffffffffffffffffff160217905550600b600081548092919060010191905055508080600101915050610ba9565b50600a54600b541415610c7557610c4861104b565b7ffd0e37de7f01b02879f333b4c10badb9b3c163bd204864c1df4488f2d3419ecd60405160405180910390a15b5050565b600760009054906101000a900473ffffffffffffffffffffffffffffffffffffffff1681565b600660009054906101000a900473ffffffffffffffffffffffffffffffffffffffff1681565b7f000000000000000000000000000000000000000000000000000000000000000073ffffffffffffffffffffffffffffffffffffffff163373ffffffffffffffffffffffffffffffffffffffff1614610d86576040517f08c379a000000000000000000000000000000000000000000000000000000000815260040180806020018281038252601f8152602001807f4f6e6c7920565246436f6f7264696e61746f722063616e2066756c66696c6c0081525060200191505060405180910390fd5b610d90828261110f565b5050565b60095481565b600760009054906101000a900473ffffffffffffffffffffffffffffffffffffffff1673ffffffffffffffffffffffffffffffffffffffff163373ffffffffffffffffffffffffffffffffffffffff1614610e40576040517f08c379a000000000000000000000000000000000000000000000000000000000815260040180806020018281038252602e815260200180611821602e913960400191505060405180910390fd5b603c4201600d81905550565b600760009054906101000a900473ffffffffffffffffffffffffffffffffffffffff1673ffffffffffffffffffffffffffffffffffffffff163373ffffffffffffffffffffffffffffffffffffffff1614610ef2576040517f08c379a000000000000000000000000000000000000000000000000000000000815260040180806020018281038252602e815260200180611821602e913960400191505060405180910390fd5b8060098190555050565b6000600160003373ffffffffffffffffffffffffffffffffffffffff1673ffffffffffffffffffffffffffffffffffffffff16815260200190815260200160002054905090565b600b5481565b600560009054906101000a900473ffffffffffffffffffffffffffffffffffffffff1681565b60016020528060005260406000206000915090505481565b600760009054906101000a900473ffffffffffffffffffffffffffffffffffffffff1673ffffffffffffffffffffffffffffffffffffffff163373ffffffffffffffffffffffffffffffffffffffff161461102d576040517f08c379a000000000000000000000000000000000000000000000000000000000815260040180806020018281038252602e815260200180611821602e913960400191505060405180910390fd5b6000600b541161103c57600080fd5b6000611046611322565b905050565b600760009054906101000a900473ffffffffffffffffffffffffffffffffffffffff1673ffffffffffffffffffffffffffffffffffffffff163373ffffffffffffffffffffffffffffffffffffffff16146110f1576040517f08c379a000000000000000000000000000000000000000000000000000000000815260040180806020018281038252602e815260200180611821602e913960400191505060405180910390fd5b6000600b541161110057600080fd5b600061110a611322565b905050565b600d54600c81905550806010819055506000600b546010548161112e57fe5b0690506002818154811061113e57fe5b9060005260206000200160009054906101000a900473ffffffffffffffffffffffffffffffffffffffff16600e60006101000a81548173ffffffffffffffffffffffffffffffffffffffff021916908373ffffffffffffffffffffffffffffffffffffffff1602179055506111b1610967565b60016000600e60009054906101000a900473ffffffffffffffffffffffffffffffffffffffff1673ffffffffffffffffffffffffffffffffffffffff1673ffffffffffffffffffffffffffffffffffffffff168152602001908152602001600020540160016000600e60009054906101000a900473ffffffffffffffffffffffffffffffffffffffff1673ffffffffffffffffffffffffffffffffffffffff1673ffffffffffffffffffffffffffffffffffffffff168152602001908152602001600020819055506000600b81905550600954600a819055506002600061129891906117af565b7f5d19713ba893423f25ff90a363c849e7f80ceedd6905f57ca0fa9cd66da16512600e60009054906101000a900473ffffffffffffffffffffffffffffffffffffffff16604051808273ffffffffffffffffffffffffffffffffffffffff1673ffffffffffffffffffffffffffffffffffffffff16815260200191505060405180910390a1505050565b60006004547f000000000000000000000000000000000000000000000000000000000000000073ffffffffffffffffffffffffffffffffffffffff166370a08231306040518263ffffffff1660e01b8152600401808273ffffffffffffffffffffffffffffffffffffffff1673ffffffffffffffffffffffffffffffffffffffff16815260200191505060206040518083038186803b1580156113c457600080fd5b505afa1580156113d8573d6000803e3d6000fd5b505050506040513d60208110156113ee57600080fd5b810190808051906020019092919050505011611455576040517f08c379a000000000000000000000000000000000000000000000000000000000815260040180806020018281038252602b8152602001806117f6602b913960400191505060405180910390fd5b611463600354600454611468565b905090565b60007f000000000000000000000000000000000000000000000000000000000000000073ffffffffffffffffffffffffffffffffffffffff16634000aea07f00000000000000000000000000000000000000000000000000000000000000008486600060405160200180838152602001828152602001925050506040516020818303038152906040526040518463ffffffff1660e01b8152600401808473ffffffffffffffffffffffffffffffffffffffff1673ffffffffffffffffffffffffffffffffffffffff16815260200183815260200180602001828103825283818151815260200191508051906020019080838360005b8381101561157857808201518184015260208101905061155d565b50505050905090810190601f1680156115a55780820380516001836020036101000a031916815260200191505b50945050505050602060405180830381600087803b1580156115c657600080fd5b505af11580156115da573d6000803e3d6000fd5b505050506040513d60208110156115f057600080fd5b81019080805190602001909291905050505060006116238460003060008089815260200190815260200160002054611674565b905061164b6001600080878152602001908152602001600020546116ee90919063ffffffff16565b6000808681526020019081526020016000208190555061166b8482611776565b91505092915050565b600084848484604051602001808581526020018481526020018373ffffffffffffffffffffffffffffffffffffffff1673ffffffffffffffffffffffffffffffffffffffff1681526020018281526020019450505050506040516020818303038152906040528051906020012060001c9050949350505050565b60008082840190508381101561176c576040517f08c379a000000000000000000000000000000000000000000000000000000000815260040180806020018281038252601b8152602001807f536166654d6174683a206164646974696f6e206f766572666c6f77000000000081525060200191505060405180910390fd5b8091505092915050565b60008282604051602001808381526020018281526020019250505060405160208183030381529060405280519060200120905092915050565b50805460008255906000526020600020908101906117cd91906117d0565b50565b6117f291905b808211156117ee5760008160009055506001016117d6565b5090565b9056fe4e6f7420656e6f756768204c494e4b202d2066696c6c20636f6e7472616374207769746820666175636574546869732063616e206f6e6c792062652063616c6c65642062792074686520636f6e7472616374206f776e65722ea26469706673582212203b0183f9e5075b4e141adc9b863963d9667098d253a98b2d04b32f3ceaf86d1f64736f6c63430006060033",
  "immutableReferences": {
    "2531": [
      {
        "length": 32,
        "start": 4905
      },
      {
        "length": 32,
        "start": 5228
      }
    ],
    "2533": [
      {
        "length": 32,
        "start": 3271
      },
      {
        "length": 32,
        "start": 5288
      }
    ]
  },
  "source": "// SPDX-License-Identifier: GPL-3.0\r\npragma solidity 0.6.6;\r\n\r\nimport \"@chainlink/contracts/src/v0.6/VRFConsumerBase.sol\";\r\nimport \"contracts/Chroma.sol\";\r\n\r\ncontract Lottery is VRFConsumerBase {\r\n\r\n\tmapping(address => uint256) public winnings;\r\n\taddress payable [] public tickets;\r\n\r\n\tbytes32 internal keyHash;\r\n\tuint256 internal fee;\r\n\r\n\tChroma public chroma;\r\n\taddress public casino;\r\n\taddress public owner;\r\n\r\n\t// -------------------- variables -----------------------------------------\t\r\n\tstring public name = \"Lottery\";\r\n\r\n\tuint256 public maxTickets = 100;\r\n\tuint256 public remainingTickets = 0;\r\n\tuint256 public ticketCount = 0;\r\n\r\n\tuint256 public lastSpin;\r\n\tuint256 public nextSpin = block.timestamp + 4 minutes;\r\n\r\n\taddress public latestWinner;\r\n\r\n\t//wei\r\n\tuint256 public ticketPrice = 1000000000000000000000;\r\n\r\n\tuint256 private randomResult;\r\n\r\n\tevent NewSpinDate(uint256 nextSpin);\r\n\tevent AllTicketsBought();\r\n\tevent SpinComplete(address userAddress);\r\n\r\n\t/**\r\n     * Constructor inherits VRFConsumerBase\r\n     *\r\n     * Network: MATIC\r\n     * Chainlink VRF Coordinator address: 0x8C7382F9D8f56b33781fE506E897a4F1e2d17255\r\n     * LINK token address:                0x326C977E6efc84E512bB9C30f76E30c160eD06FB\r\n     * Key Hash: 0x6e75b569a01ef56d18cab6a8e71e6600d6ce853834d4a5748b720d06f878b3a4\r\n     */\r\n\tconstructor(address _token)\r\n\tVRFConsumerBase(\r\n\t\t0x8C7382F9D8f56b33781fE506E897a4F1e2d17255, // VRF Coordinator\r\n\t\t0x326C977E6efc84E512bB9C30f76E30c160eD06FB  // LINK Token\r\n\t) public\r\n\t{\r\n\t\tkeyHash = 0x6e75b569a01ef56d18cab6a8e71e6600d6ce853834d4a5748b720d06f878b3a4;\r\n\t\tfee = 0.0001 * 10 ** 18; // 0.0001 LINK\r\n\t\tchroma = Chroma (_token);\r\n\t\tcasino = address(this);\r\n\t\towner = msg.sender;\r\n\t\tremainingTickets = maxTickets;\r\n\t}\r\n\r\n\tmodifier onlyCasino() {\r\n\t\trequire(msg.sender == casino, \"This can only be called by the contract itself.\");\r\n\t\t_;\r\n\t}\r\n\r\n\tmodifier onlyOwner() {\r\n\t\trequire(msg.sender == owner, \"This can only be called by the contract owner.\");\r\n\t\t_;\r\n\t}\r\n\r\n\tfunction setNumTickets(uint256 newMax) external onlyOwner {\r\n\t\tmaxTickets = newMax;\r\n\t}\r\n\r\n\tfunction getPotAmount() public view returns (uint256)  {\r\n\t\treturn ticketPrice * ticketCount * 95 / 100;\r\n\t}\r\n\r\n\tfunction buyTicket(uint256 amountOfTickets) external {\r\n\r\n\t\trequire(amountOfTickets<=remainingTickets);\r\n\r\n\t\tif(ticketCount==0){\r\n\t\t\tnextSpin = block.timestamp + 2 minutes;\r\n\t\t\temit NewSpinDate(nextSpin);\r\n\t\t}\r\n\r\n\t\tbool sent = chroma.transferFrom(msg.sender,casino,ticketPrice);\r\n\t\trequire(sent, \"CHROMA transfer failed\");\r\n\r\n\t\tremainingTickets -= amountOfTickets; //remove from unspent supply\r\n\r\n\t\tfor(uint i = 0; i<amountOfTickets; i++) {\r\n\t\t\ttickets.push(msg.sender);\r\n\t\t\tticketCount++;\r\n\t\t}\r\n\r\n\t\tif(ticketCount==remainingTickets){\r\n\t\t\trequestPrivateRandomness();\r\n\t\t\temit AllTicketsBought();\r\n\t\t}\r\n\r\n\t}\r\n\r\n\tfunction Withdraw() external {\r\n\t\trequire(winnings[msg.sender] > 0);\r\n\r\n\t\tuint256 amountToWithdraw = winnings[msg.sender];\r\n\r\n\t\tbool sent = chroma.transfer(msg.sender,amountToWithdraw);\r\n\t\trequire(sent, \"CHROMA transfer failed\");\r\n\r\n\t\twinnings[msg.sender] = 0;\r\n\r\n\t}\r\n\r\n\tfunction numTicketsBought() external view returns(uint256) {\r\n\t\tuint num = 0;\r\n\t\tfor(uint i = 0; i<tickets.length; i++) {\r\n\t\t\tif(tickets[i] == msg.sender) {\r\n\t\t\t\tnum++;\r\n\t\t\t}\r\n\t\t}\r\n\t\treturn num;\r\n\t}\r\n\r\n\tfunction checkBalance() external view returns (uint256) {\r\n\t\treturn winnings[msg.sender];\r\n\t}\r\n\r\n\tfunction upTime() external onlyOwner {\r\n\t\tnextSpin = block.timestamp + 1 minutes;\r\n\t}\r\n\r\n\t//spinWheel\r\n\tfunction requestRandomness() external onlyOwner {\r\n\t\trequire(ticketCount > 0);\r\n\t\t//Request randomness, get request id\r\n\t\tbytes32 current_request;\r\n\t\tcurrent_request = getRandomNumber();\r\n\t}\r\n\r\n\t//spinWheel\r\n\tfunction requestPrivateRandomness() private onlyOwner {\r\n\t\trequire(ticketCount > 0);\r\n\t\t//Request randomness, get request id\r\n\t\tbytes32 current_request;\r\n\t\tcurrent_request = getRandomNumber();\r\n\t}\r\n\r\n\r\n\t/**\r\n     * Requests randomness from a user-provided seed\r\n     */\r\n\tfunction getRandomNumber() private returns (bytes32 requestId) {\r\n\t\trequire(LINK.balanceOf(address(this)) > fee, \"Not enough LINK - fill contract with faucet\");\r\n\t\treturn requestRandomness(keyHash, fee);\r\n\t}\r\n\r\n\t/**\r\n     * Callback function used by VRF Coordinator\r\n     */\r\n\tfunction fulfillRandomness(bytes32 requestId, uint256 randomness) internal override {\r\n\r\n\t\tlastSpin = nextSpin;\r\n\r\n\t\trandomResult = randomness;\r\n\t\tuint _spinResult = randomResult % ticketCount;\r\n\r\n\t\tlatestWinner = tickets[_spinResult];\r\n\t\twinnings[latestWinner] = winnings[latestWinner] + getPotAmount();\r\n\t\tticketCount = 0;\r\n\r\n\t\tremainingTickets = maxTickets;\r\n\r\n\t\tdelete tickets;\r\n\t\t\r\n\t\temit SpinComplete(latestWinner);\r\n\r\n\t}\r\n\r\n}",
  "sourcePath": "C:/Users/MSI/Documents/GitHub/Chromatec-casino-web/web/Chromatec Casino/contracts/Lottery.sol",
  "compiler": {
    "name": "solc",
    "version": "0.6.6+commit.6c089d02.Emscripten.clang"
  },
  "schemaVersion": "3.4.1",
  "updatedAt": "2021-09-03T14:19:56.038Z",
  "networkType": "ethereum",
  "devdoc": {
    "methods": {}
  },
  "userdoc": {
    "methods": {
      "constructor": "Constructor inherits VRFConsumerBase      * Network: MATIC Chainlink VRF Coordinator address: 0x8C7382F9D8f56b33781fE506E897a4F1e2d17255 LINK token address:                0x326C977E6efc84E512bB9C30f76E30c160eD06FB Key Hash: 0x6e75b569a01ef56d18cab6a8e71e6600d6ce853834d4a5748b720d06f878b3a4"
    }
  }
}