{
  "contractName": "Roulette",
  "abi": [
    {
      "inputs": [
        {
          "internalType": "address",
          "name": "_token",
          "type": "address"
        }
      ],
      "stateMutability": "nonpayable",
      "type": "constructor"
    },
    {
      "anonymous": false,
      "inputs": [],
      "name": "BetsClosed",
      "type": "event"
    },
    {
      "anonymous": false,
      "inputs": [
        {
          "indexed": false,
          "internalType": "uint256",
          "name": "nextSpin",
          "type": "uint256"
        }
      ],
      "name": "NewSpinDate",
      "type": "event"
    },
    {
      "anonymous": false,
      "inputs": [
        {
          "indexed": false,
          "internalType": "uint256",
          "name": "ballNumber",
          "type": "uint256"
        }
      ],
      "name": "SpinComplete",
      "type": "event"
    },
    {
      "inputs": [
        {
          "internalType": "address",
          "name": "",
          "type": "address"
        }
      ],
      "name": "balance",
      "outputs": [
        {
          "internalType": "uint256",
          "name": "",
          "type": "uint256"
        }
      ],
      "stateMutability": "view",
      "type": "function",
      "constant": true
    },
    {
      "inputs": [
        {
          "internalType": "uint16",
          "name": "",
          "type": "uint16"
        }
      ],
      "name": "book",
      "outputs": [
        {
          "internalType": "address payable",
          "name": "player",
          "type": "address"
        },
        {
          "internalType": "uint8",
          "name": "bet_type",
          "type": "uint8"
        },
        {
          "internalType": "uint256",
          "name": "bet_num",
          "type": "uint256"
        },
        {
          "internalType": "uint256",
          "name": "amount",
          "type": "uint256"
        },
        {
          "internalType": "uint16",
          "name": "round_bet_id",
          "type": "uint16"
        }
      ],
      "stateMutability": "view",
      "type": "function",
      "constant": true
    },
    {
      "inputs": [],
      "name": "casino",
      "outputs": [
        {
          "internalType": "address",
          "name": "",
          "type": "address"
        }
      ],
      "stateMutability": "view",
      "type": "function",
      "constant": true
    },
    {
      "inputs": [
        {
          "internalType": "address",
          "name": "",
          "type": "address"
        }
      ],
      "name": "didWin",
      "outputs": [
        {
          "internalType": "uint256",
          "name": "",
          "type": "uint256"
        }
      ],
      "stateMutability": "view",
      "type": "function",
      "constant": true
    },
    {
      "inputs": [],
      "name": "maxBet",
      "outputs": [
        {
          "internalType": "uint256",
          "name": "",
          "type": "uint256"
        }
      ],
      "stateMutability": "view",
      "type": "function",
      "constant": true
    },
    {
      "inputs": [],
      "name": "maxBetRatio",
      "outputs": [
        {
          "internalType": "uint256",
          "name": "",
          "type": "uint256"
        }
      ],
      "stateMutability": "view",
      "type": "function",
      "constant": true
    },
    {
      "inputs": [],
      "name": "owner",
      "outputs": [
        {
          "internalType": "address",
          "name": "",
          "type": "address"
        }
      ],
      "stateMutability": "view",
      "type": "function",
      "constant": true
    },
    {
      "inputs": [
        {
          "internalType": "bytes32",
          "name": "requestId",
          "type": "bytes32"
        },
        {
          "internalType": "uint256",
          "name": "randomness",
          "type": "uint256"
        }
      ],
      "name": "rawFulfillRandomness",
      "outputs": [],
      "stateMutability": "nonpayable",
      "type": "function"
    },
    {
      "inputs": [],
      "name": "maxBetValue",
      "outputs": [
        {
          "internalType": "uint256",
          "name": "",
          "type": "uint256"
        }
      ],
      "stateMutability": "view",
      "type": "function",
      "constant": true
    },
    {
      "inputs": [
        {
          "internalType": "uint256",
          "name": "amount",
          "type": "uint256"
        }
      ],
      "name": "checkMaxBet",
      "outputs": [],
      "stateMutability": "view",
      "type": "function",
      "constant": true
    },
    {
      "inputs": [
        {
          "internalType": "uint256",
          "name": "amount",
          "type": "uint256"
        }
      ],
      "name": "addBalance",
      "outputs": [],
      "stateMutability": "nonpayable",
      "type": "function"
    },
    {
      "inputs": [],
      "name": "getNextSpin",
      "outputs": [
        {
          "internalType": "uint256",
          "name": "",
          "type": "uint256"
        }
      ],
      "stateMutability": "view",
      "type": "function",
      "constant": true
    },
    {
      "inputs": [],
      "name": "getLastSpin",
      "outputs": [
        {
          "internalType": "uint256",
          "name": "",
          "type": "uint256"
        }
      ],
      "stateMutability": "view",
      "type": "function",
      "constant": true
    },
    {
      "inputs": [],
      "name": "checkBalance",
      "outputs": [
        {
          "internalType": "uint256",
          "name": "",
          "type": "uint256"
        }
      ],
      "stateMutability": "view",
      "type": "function",
      "constant": true
    },
    {
      "inputs": [],
      "name": "checkDidWin",
      "outputs": [
        {
          "internalType": "uint256",
          "name": "",
          "type": "uint256"
        }
      ],
      "stateMutability": "view",
      "type": "function",
      "constant": true
    },
    {
      "inputs": [
        {
          "internalType": "uint256",
          "name": "amount",
          "type": "uint256"
        }
      ],
      "name": "Withdraw",
      "outputs": [],
      "stateMutability": "nonpayable",
      "type": "function"
    },
    {
      "inputs": [
        {
          "components": [
            {
              "internalType": "uint8",
              "name": "bet_type",
              "type": "uint8"
            },
            {
              "internalType": "uint256",
              "name": "bet_num",
              "type": "uint256"
            },
            {
              "internalType": "uint256",
              "name": "amount",
              "type": "uint256"
            },
            {
              "internalType": "uint256",
              "name": "chroma_value",
              "type": "uint256"
            }
          ],
          "internalType": "struct Roulette.SimpleBet[]",
          "name": "bets",
          "type": "tuple[]"
        }
      ],
      "name": "betting",
      "outputs": [],
      "stateMutability": "nonpayable",
      "type": "function"
    },
    {
      "inputs": [],
      "name": "upTime",
      "outputs": [],
      "stateMutability": "nonpayable",
      "type": "function"
    },
    {
      "inputs": [],
      "name": "spinWheel",
      "outputs": [],
      "stateMutability": "nonpayable",
      "type": "function"
    }
  ],
  "bytecode": "0x60c0604052670de0b6b3a7640000600555606460065560f04201600c55604051806101800160405280600160ff168152602001600460ff168152602001600760ff168152602001600a60ff168152602001600d60ff168152602001601060ff168152602001601360ff168152602001601660ff168152602001601960ff168152602001601c60ff168152602001601f60ff168152602001602260ff16815250600f90600c620000b092919062000893565b50604051806101800160405280600260ff168152602001600560ff168152602001600860ff168152602001600b60ff168152602001600e60ff168152602001601160ff168152602001601460ff168152602001601760ff168152602001601a60ff168152602001601d60ff168152602001602060ff168152602001602360ff16815250601090600c6200014592919062000893565b50604051806101800160405280600360ff168152602001600660ff168152602001600960ff168152602001600c60ff168152602001600f60ff168152602001601260ff168152602001601560ff168152602001601860ff168152602001601b60ff168152602001601e60ff168152602001602160ff168152602001602460ff16815250601190600c620001da92919062000893565b50604051806102400160405280600160ff168152602001600360ff168152602001600560ff168152602001600760ff168152602001600960ff168152602001600c60ff168152602001600e60ff168152602001601060ff168152602001601260ff168152602001601360ff168152602001601560ff168152602001601760ff168152602001601960ff168152602001601b60ff168152602001601e60ff168152602001602060ff168152602001602260ff168152602001602460ff168152506012906012620002ab92919062000941565b50604051806102400160405280600260ff168152602001600460ff168152602001600660ff168152602001600860ff168152602001600a60ff168152602001600b60ff168152602001600d60ff168152602001600f60ff168152602001601160ff168152602001601460ff168152602001601660ff168152602001601860ff168152602001601a60ff168152602001601c60ff168152602001601d60ff168152602001601f60ff168152602001602160ff168152602001602360ff1681525060139060126200037c92919062000941565b506000601a60006101000a81548161ffff021916908361ffff160217905550348015620003a857600080fd5b50604051620033d8380380620033d88339818101604052810190620003ce919062000a39565b738c7382f9d8f56b33781fe506e897a4f1e2d1725573326c977e6efc84e512bb9c30f76e30c160ed06fb8173ffffffffffffffffffffffffffffffffffffffff1660a08173ffffffffffffffffffffffffffffffffffffffff1660601b815250508073ffffffffffffffffffffffffffffffffffffffff1660808173ffffffffffffffffffffffffffffffffffffffff1660601b8152505050507f6e75b569a01ef56d18cab6a8e71e6600d6ce853834d4a5748b720d06f878b3a460001b600181905550655af3107a400060028190555030600360006101000a81548173ffffffffffffffffffffffffffffffffffffffff021916908373ffffffffffffffffffffffffffffffffffffffff16021790555033600460006101000a81548173ffffffffffffffffffffffffffffffffffffffff021916908373ffffffffffffffffffffffffffffffffffffffff16021790555080600760006101000a81548173ffffffffffffffffffffffffffffffffffffffff021916908373ffffffffffffffffffffffffffffffffffffffff16021790555062000572620005b960201b60201c565b620005826200061c60201b60201c565b620005926200067f60201b60201c565b620005a2620006e260201b60201c565b620005b26200074560201b60201c565b5062000ab3565b60005b60128054905081101562000619576200060b60128281548110620005dc57fe5b90600052602060002090602091828204019190069054906101000a900460ff1660ff16620007a860201b60201c565b8080600101915050620005bc565b50565b60005b6013805490508110156200067c576200066e601382815481106200063f57fe5b90600052602060002090602091828204019190069054906101000a900460ff1660ff16620007d760201b60201c565b80806001019150506200061f565b50565b60005b600f80549050811015620006df57620006d1600f8281548110620006a257fe5b90600052602060002090602091828204019190069054906101000a900460ff1660ff166200080660201b60201c565b808060010191505062000682565b50565b60005b601080549050811015620007425762000734601082815481106200070557fe5b90600052602060002090602091828204019190069054906101000a900460ff1660ff166200083560201b60201c565b8080600101915050620006e5565b50565b60005b601180549050811015620007a55762000797601182815481106200076857fe5b90600052602060002090602091828204019190069054906101000a900460ff1660ff166200086460201b60201c565b808060010191505062000748565b50565b60016014600083815260200190815260200160002060006101000a81548160ff02191690831515021790555050565b60016015600083815260200190815260200160002060006101000a81548160ff02191690831515021790555050565b60016016600083815260200190815260200160002060006101000a81548160ff02191690831515021790555050565b60016017600083815260200190815260200160002060006101000a81548160ff02191690831515021790555050565b60016018600083815260200190815260200160002060006101000a81548160ff02191690831515021790555050565b82805482825590600052602060002090601f016020900481019282156200092e5791602002820160005b83821115620008fd57835183826101000a81548160ff021916908360ff1602179055509260200192600101602081600001049283019260010302620008bd565b80156200092c5782816101000a81549060ff0219169055600101602081600001049283019260010302620008fd565b505b5090506200093d9190620009ef565b5090565b82805482825590600052602060002090601f01602090048101928215620009dc5791602002820160005b83821115620009ab57835183826101000a81548160ff021916908360ff16021790555092602001926001016020816000010492830192600103026200096b565b8015620009da5782816101000a81549060ff0219169055600101602081600001049283019260010302620009ab565b505b509050620009eb9190620009ef565b5090565b62000a1f91905b8082111562000a1b57600081816101000a81549060ff021916905550600101620009f6565b5090565b90565b60008151905062000a338162000a99565b92915050565b60006020828403121562000a4c57600080fd5b600062000a5c8482850162000a22565b91505092915050565b600062000a728262000a79565b9050919050565b600073ffffffffffffffffffffffffffffffffffffffff82169050919050565b62000aa48162000a65565b811462000ab057600080fd5b50565b60805160601c60a05160601c6128f162000ae7600039806108895280611c10525080610fd95280611bd452506128f16000f3fe608060405234801561001057600080fd5b50600436106101215760003560e01c806394985ddd116100ad578063d357bd8611610071578063d357bd86146102b2578063d91921ed146102d0578063ddab1780146102ec578063e3d670d714610308578063efa3381b1461033857610121565b806394985ddd14610234578063a765fac014610250578063b10fb2ba1461026c578063c17bcdee14610276578063c71daccb1461029457610121565b806376f084d8116100f457806376f084d814610188578063839eaf9b146101a65780638da5cb5b146101da57806390577c6d146101f85780639403e8dd1461021657610121565b806315ecef92146101265780632e5b2168146101305780633608c7fa1461014e5780635b6b431d1461016c575b600080fd5b61012e610368565b005b6101386105ab565b60405161014591906126dc565b60405180910390f35b6101566105b1565b60405161016391906126dc565b60405180910390f35b6101866004803603810190610181919061215f565b6105f8565b005b6101906107a1565b60405161019d91906126dc565b60405180910390f35b6101c060048036038101906101bb9190612136565b6107c0565b6040516101d195949392919061251d565b60405180910390f35b6101e2610831565b6040516101ef91906124a2565b60405180910390f35b610200610857565b60405161020d91906126dc565b60405180910390f35b61021e610861565b60405161022b91906124a2565b60405180910390f35b61024e600480360381019061024991906120fa565b610887565b005b61026a6004803603810190610265919061208c565b610923565b005b610274610cad565b005b61027e610d82565b60405161028b91906126dc565b60405180910390f35b61029c610d88565b6040516102a991906126dc565b60405180910390f35b6102ba610dcf565b6040516102c791906126dc565b60405180910390f35b6102ea60048036038101906102e5919061215f565b610dd9565b005b6103066004803603810190610301919061215f565b610f5a565b005b610322600480360381019061031d9190612063565b610fa2565b60405161032f91906126dc565b60405180910390f35b610352600480360381019061034d9190612063565b610fba565b60405161035f91906126dc565b60405180910390f35b600460009054906101000a900473ffffffffffffffffffffffffffffffffffffffff1673ffffffffffffffffffffffffffffffffffffffff163373ffffffffffffffffffffffffffffffffffffffff16146103f8576040517f08c379a00000000000000000000000000000000000000000000000000000000081526004016103ef906126bc565b60405180910390fd5b60008090505b600d8054905081101561056f57610413611ecc565b60096000600d848154811061042457fe5b90600052602060002090601091828204019190066002029054906101000a900461ffff1661ffff1661ffff1681526020019081526020016000206040518060a00160405290816000820160009054906101000a900473ffffffffffffffffffffffffffffffffffffffff1673ffffffffffffffffffffffffffffffffffffffff1673ffffffffffffffffffffffffffffffffffffffff1681526020016000820160149054906101000a900460ff1660ff1660ff16815260200160018201548152602001600282015481526020016003820160009054906101000a900461ffff1661ffff1661ffff168152505090506000816000015190506000600a60008373ffffffffffffffffffffffffffffffffffffffff1673ffffffffffffffffffffffffffffffffffffffff16815260200190815260200160002081905550505080806001019150506103fe565b507ff1bc8800972650bf2b1e850d2c2caa8e5afe92c2ce7e0451412c57682c730b6660405160405180910390a160006105a6610fd2565b905050565b60055481565b6000600a60003373ffffffffffffffffffffffffffffffffffffffff1673ffffffffffffffffffffffffffffffffffffffff16815260200190815260200160002054905090565b80600860003373ffffffffffffffffffffffffffffffffffffffff1673ffffffffffffffffffffffffffffffffffffffff16815260200190815260200160002054101561064457600080fd5b80600860003373ffffffffffffffffffffffffffffffffffffffff1673ffffffffffffffffffffffffffffffffffffffff168152602001908152602001600020600082825403925050819055506000600760009054906101000a900473ffffffffffffffffffffffffffffffffffffffff1673ffffffffffffffffffffffffffffffffffffffff1663a9059cbb33846040518363ffffffff1660e01b81526004016106f09291906124f4565b602060405180830381600087803b15801561070a57600080fd5b505af115801561071e573d6000803e3d6000fd5b505050506040513d601f19601f8201168201806040525081019061074291906120d1565b905080610784576040517f08c379a000000000000000000000000000000000000000000000000000000000815260040161077b9061267c565b60405180910390fd5b60065461078f6110d3565b8161079657fe5b046005819055505050565b6000806006546107af6110d3565b816107b657fe5b0490508091505090565b60096020528060005260406000206000915090508060000160009054906101000a900473ffffffffffffffffffffffffffffffffffffffff16908060000160149054906101000a900460ff16908060010154908060020154908060030160009054906101000a900461ffff16905085565b600460009054906101000a900473ffffffffffffffffffffffffffffffffffffffff1681565b6000600b54905090565b600360009054906101000a900473ffffffffffffffffffffffffffffffffffffffff1681565b7f000000000000000000000000000000000000000000000000000000000000000073ffffffffffffffffffffffffffffffffffffffff163373ffffffffffffffffffffffffffffffffffffffff1614610915576040517f08c379a000000000000000000000000000000000000000000000000000000000815260040161090c9061269c565b60405180910390fd5b61091f82826111a7565b5050565b600080905060008090505b838390508110156109605783838281811061094557fe5b9050608002016040013582019150808060010191505061092e565b5061096a81610f5a565b80600860003373ffffffffffffffffffffffffffffffffffffffff1673ffffffffffffffffffffffffffffffffffffffff1681526020019081526020016000205410156109b657600080fd5b606460028202816109c357fe5b0460086000600460009054906101000a900473ffffffffffffffffffffffffffffffffffffffff1673ffffffffffffffffffffffffffffffffffffffff1673ffffffffffffffffffffffffffffffffffffffff1681526020019081526020016000206000828254019250508190555080600860003373ffffffffffffffffffffffffffffffffffffffff1673ffffffffffffffffffffffffffffffffffffffff16815260200190815260200160002060008282540392505081905550600033905060008090505b84849050811015610ca657610a9d611ecc565b6040518060a001604052808473ffffffffffffffffffffffffffffffffffffffff168152602001878785818110610ad057fe5b9050608002016000016020810190610ae891906121b1565b60ff168152602001878785818110610afc57fe5b90506080020160200135815260200160646062898987818110610b1b57fe5b905060800201604001350281610b2d57fe5b048152602001601a600081819054906101000a900461ffff168092919060010191906101000a81548161ffff021916908361ffff16021790555061ffff1681525090508060096000601a60009054906101000a900461ffff1661ffff1661ffff16815260200190815260200160002060008201518160000160006101000a81548173ffffffffffffffffffffffffffffffffffffffff021916908373ffffffffffffffffffffffffffffffffffffffff16021790555060208201518160000160146101000a81548160ff021916908360ff160217905550604082015181600101556060820151816002015560808201518160030160006101000a81548161ffff021916908361ffff160217905550905050600d601a60009054906101000a900461ffff1690806001815401808255809150506001900390600052602060002090601091828204019190066002029091909190916101000a81548161ffff021916908361ffff160217905550508080600101915050610a8a565b5050505050565b600460009054906101000a900473ffffffffffffffffffffffffffffffffffffffff1673ffffffffffffffffffffffffffffffffffffffff163373ffffffffffffffffffffffffffffffffffffffff1614610d3d576040517f08c379a0000000000000000000000000000000000000000000000000000000008152600401610d34906126bc565b60405180910390fd5b603c4201600c819055507f628efbabe362c47f9209473e8aa26a62530cbfc05f3fc0f91d2e1a8c2a3107ef600c54604051610d7891906126dc565b60405180910390a1565b60065481565b6000600860003373ffffffffffffffffffffffffffffffffffffffff1673ffffffffffffffffffffffffffffffffffffffff16815260200190815260200160002054905090565b6000600c54905090565b6000600760009054906101000a900473ffffffffffffffffffffffffffffffffffffffff1673ffffffffffffffffffffffffffffffffffffffff166323b872dd33600360009054906101000a900473ffffffffffffffffffffffffffffffffffffffff16856040518463ffffffff1660e01b8152600401610e5c939291906124bd565b602060405180830381600087803b158015610e7657600080fd5b505af1158015610e8a573d6000803e3d6000fd5b505050506040513d601f19601f82011682018060405250810190610eae91906120d1565b905080610ef0576040517f08c379a0000000000000000000000000000000000000000000000000000000008152600401610ee79061267c565b60405180910390fd5b81600860003373ffffffffffffffffffffffffffffffffffffffff1673ffffffffffffffffffffffffffffffffffffffff16815260200190815260200160002060008282540192505081905550600654610f486110d3565b81610f4f57fe5b046005819055505050565b600554811115610f9f576040517f08c379a0000000000000000000000000000000000000000000000000000000008152600401610f969061265c565b60405180910390fd5b50565b60086020528060005260406000206000915090505481565b600a6020528060005260406000206000915090505481565b60006002547f000000000000000000000000000000000000000000000000000000000000000073ffffffffffffffffffffffffffffffffffffffff166370a08231306040518263ffffffff1660e01b815260040161103091906124a2565b60206040518083038186803b15801561104857600080fd5b505afa15801561105c573d6000803e3d6000fd5b505050506040513d601f19601f820116820180604052508101906110809190612188565b116110c0576040517f08c379a00000000000000000000000000000000000000000000000000000000081526004016110b79061263c565b60405180910390fd5b6110ce600154600254611bd0565b905090565b6000600760009054906101000a900473ffffffffffffffffffffffffffffffffffffffff1673ffffffffffffffffffffffffffffffffffffffff166370a08231600360009054906101000a900473ffffffffffffffffffffffffffffffffffffffff166040518263ffffffff1660e01b815260040161115291906124a2565b60206040518083038186803b15801561116a57600080fd5b505afa15801561117e573d6000803e3d6000fd5b505050506040513d601f19601f820116820180604052508101906111a29190612188565b905090565b600e60006111b59190611f18565b600c54600b819055508060198190555060006024601954816111d357fe5b06905060008090505b600d80549050811015611b40576111f1611ecc565b60096000600d848154811061120257fe5b90600052602060002090601091828204019190066002029054906101000a900461ffff1661ffff1661ffff1681526020019081526020016000206040518060a00160405290816000820160009054906101000a900473ffffffffffffffffffffffffffffffffffffffff1673ffffffffffffffffffffffffffffffffffffffff1673ffffffffffffffffffffffffffffffffffffffff1681526020016000820160149054906101000a900460ff1660ff1660ff16815260200160018201548152602001600282015481526020016003820160009054906101000a900461ffff1661ffff1661ffff168152505090506000816020015160ff16905060008260400151905060008360000151905060008460600151905082871480156113265750600584145b156114285760248102600860008473ffffffffffffffffffffffffffffffffffffffff1673ffffffffffffffffffffffffffffffffffffffff168152602001908152602001600020600082825401925050819055506002600a60008473ffffffffffffffffffffffffffffffffffffffff1673ffffffffffffffffffffffffffffffffffffffff16815260200190815260200160002081905550600e829080600181540180825580915050600190039060005260206000200160009091909190916101000a81548173ffffffffffffffffffffffffffffffffffffffff021916908373ffffffffffffffffffffffffffffffffffffffff160217905550611b15565b6000871180156114415750826002888161143e57fe5b06145b801561144d5750600484145b1561154f5760028102600860008473ffffffffffffffffffffffffffffffffffffffff1673ffffffffffffffffffffffffffffffffffffffff168152602001908152602001600020600082825401925050819055506002600a60008473ffffffffffffffffffffffffffffffffffffffff1673ffffffffffffffffffffffffffffffffffffffff16815260200190815260200160002081905550600e829080600181540180825580915050600190039060005260206000200160009091909190916101000a81548173ffffffffffffffffffffffffffffffffffffffff021916908373ffffffffffffffffffffffffffffffffffffffff160217905550611b14565b60138710801561155f5750600087115b801561156b5750600083145b8061159a57506012871180156115815750601283115b801561158d5750602587105b80156115995750600183145b5b80156115a65750600384145b156116a85760028102600860008473ffffffffffffffffffffffffffffffffffffffff1673ffffffffffffffffffffffffffffffffffffffff168152602001908152602001600020600082825401925050819055506002600a60008473ffffffffffffffffffffffffffffffffffffffff1673ffffffffffffffffffffffffffffffffffffffff16815260200190815260200160002081905550600e829080600181540180825580915050600190039060005260206000200160009091909190916101000a81548173ffffffffffffffffffffffffffffffffffffffff021916908373ffffffffffffffffffffffffffffffffffffffff160217905550611b13565b600d871080156116b85750600087115b80156116c45750600083145b806116e75750600c871180156116da5750601987105b80156116e65750600183145b5b8061170a57506018871180156116fd5750602587105b80156117095750600283145b5b80156117165750600284145b156118185760038102600860008473ffffffffffffffffffffffffffffffffffffffff1673ffffffffffffffffffffffffffffffffffffffff168152602001908152602001600020600082825401925050819055506002600a60008473ffffffffffffffffffffffffffffffffffffffff1673ffffffffffffffffffffffffffffffffffffffff16815260200190815260200160002081905550600e829080600181540180825580915050600190039060005260206000200160009091909190916101000a81548173ffffffffffffffffffffffffffffffffffffffff021916908373ffffffffffffffffffffffffffffffffffffffff160217905550611b12565b6000871180156118715750600083148015611838575061183787611d36565b5b806118545750600183148015611853575061185287611d60565b5b5b80611870575060028314801561186f575061186e87611d8a565b5b5b5b801561187d5750600184145b1561197f5760038102600860008473ffffffffffffffffffffffffffffffffffffffff1673ffffffffffffffffffffffffffffffffffffffff168152602001908152602001600020600082825401925050819055506002600a60008473ffffffffffffffffffffffffffffffffffffffff1673ffffffffffffffffffffffffffffffffffffffff16815260200190815260200160002081905550600e829080600181540180825580915050600190039060005260206000200160009091909190916101000a81548173ffffffffffffffffffffffffffffffffffffffff021916908373ffffffffffffffffffffffffffffffffffffffff160217905550611b11565b6000871180156119bc575060008314801561199f575061199e87611db4565b5b806119bb57506001831480156119ba57506119b987611dde565b5b5b5b80156119c85750600084145b15611aca5760028102600860008473ffffffffffffffffffffffffffffffffffffffff1673ffffffffffffffffffffffffffffffffffffffff168152602001908152602001600020600082825401925050819055506002600a60008473ffffffffffffffffffffffffffffffffffffffff1673ffffffffffffffffffffffffffffffffffffffff16815260200190815260200160002081905550600e829080600181540180825580915050600190039060005260206000200160009091909190916101000a81548173ffffffffffffffffffffffffffffffffffffffff021916908373ffffffffffffffffffffffffffffffffffffffff160217905550611b10565b6001600a60008473ffffffffffffffffffffffffffffffffffffffff1673ffffffffffffffffffffffffffffffffffffffff168152602001908152602001600020819055505b5b5b5b5b5b600654611b206110d3565b81611b2757fe5b04600581905550505050505080806001019150506111dc565b50600d6000611b4f9190611f39565b6078600b5401600c819055507ff2c0d6b57d08165b45aec1829d0268b738d6f45987671b943745e39602db8aa481604051611b8a91906126dc565b60405180910390a17f628efbabe362c47f9209473e8aa26a62530cbfc05f3fc0f91d2e1a8c2a3107ef600c54604051611bc391906126dc565b60405180910390a1505050565b60007f000000000000000000000000000000000000000000000000000000000000000073ffffffffffffffffffffffffffffffffffffffff16634000aea07f000000000000000000000000000000000000000000000000000000000000000084866000604051602001611c449291906125ae565b6040516020818303038152906040526040518463ffffffff1660e01b8152600401611c7193929190612570565b602060405180830381600087803b158015611c8b57600080fd5b505af1158015611c9f573d6000803e3d6000fd5b505050506040513d601f19601f82011682018060405250810190611cc391906120d1565b506000611ce58460003060008089815260200190815260200160002054611e08565b9050611d0d600160008087815260200190815260200160002054611e4490919063ffffffff16565b60008086815260200190815260200160002081905550611d2d8482611e99565b91505092915050565b60006016600083815260200190815260200160002060009054906101000a900460ff169050919050565b60006017600083815260200190815260200160002060009054906101000a900460ff169050919050565b60006018600083815260200190815260200160002060009054906101000a900460ff169050919050565b60006015600083815260200190815260200160002060009054906101000a900460ff169050919050565b60006014600083815260200190815260200160002060009054906101000a900460ff169050919050565b600084848484604051602001611e2194939291906125d7565b6040516020818303038152906040528051906020012060001c9050949350505050565b600080828401905083811015611e8f576040517f08c379a0000000000000000000000000000000000000000000000000000000008152600401611e869061261c565b60405180910390fd5b8091505092915050565b60008282604051602001611eae929190612476565b60405160208183030381529060405280519060200120905092915050565b6040518060a00160405280600073ffffffffffffffffffffffffffffffffffffffff168152602001600060ff1681526020016000815260200160008152602001600061ffff1681525090565b5080546000825590600052602060002090810190611f369190611f61565b50565b50805460008255600f016010900490600052602060002090810190611f5e9190611f61565b50565b611f8391905b80821115611f7f576000816000905550600101611f67565b5090565b90565b600081359050611f9581612831565b92915050565b60008083601f840112611fad57600080fd5b8235905067ffffffffffffffff811115611fc657600080fd5b602083019150836080820283011115611fde57600080fd5b9250929050565b600081519050611ff481612848565b92915050565b6000813590506120098161285f565b92915050565b60008135905061201e81612876565b92915050565b6000813590506120338161288d565b92915050565b6000815190506120488161288d565b92915050565b60008135905061205d816128a4565b92915050565b60006020828403121561207557600080fd5b600061208384828501611f86565b91505092915050565b6000806020838503121561209f57600080fd5b600083013567ffffffffffffffff8111156120b957600080fd5b6120c585828601611f9b565b92509250509250929050565b6000602082840312156120e357600080fd5b60006120f184828501611fe5565b91505092915050565b6000806040838503121561210d57600080fd5b600061211b85828601611ffa565b925050602061212c85828601612024565b9150509250929050565b60006020828403121561214857600080fd5b60006121568482850161200f565b91505092915050565b60006020828403121561217157600080fd5b600061217f84828501612024565b91505092915050565b60006020828403121561219a57600080fd5b60006121a884828501612039565b91505092915050565b6000602082840312156121c357600080fd5b60006121d18482850161204e565b91505092915050565b6121e3816127a3565b82525050565b6121f281612736565b82525050565b61220181612724565b82525050565b61221081612754565b82525050565b61222761222282612754565b61280c565b82525050565b6000612238826126f7565b6122428185612702565b93506122528185602086016127d9565b61225b81612820565b840191505092915050565b6000612273601b83612713565b91507f536166654d6174683a206164646974696f6e206f766572666c6f7700000000006000830152602082019050919050565b60006122b3602b83612713565b91507f4e6f7420656e6f756768204c494e4b202d2066696c6c20636f6e74726163742060008301527f77697468206661756365740000000000000000000000000000000000000000006020830152604082019050919050565b6000612319602083612713565b91507f546869732062657420657863656564206d617820706f737369626c65206265746000830152602082019050919050565b6000612359601683612713565b91507f4348524f4d41207472616e73666572206661696c6564000000000000000000006000830152602082019050919050565b6000612399601f83612713565b91507f4f6e6c7920565246436f6f7264696e61746f722063616e2066756c66696c6c006000830152602082019050919050565b60006123d9602e83612713565b91507f546869732063616e206f6e6c792062652063616c6c656420627920746865206360008301527f6f6e7472616374206f776e65722e0000000000000000000000000000000000006020830152604082019050919050565b61243b8161275e565b82525050565b61244a8161278c565b82525050565b61246161245c8261278c565b612816565b82525050565b61247081612796565b82525050565b60006124828285612216565b6020820191506124928284612450565b6020820191508190509392505050565b60006020820190506124b760008301846121f8565b92915050565b60006060820190506124d260008301866121da565b6124df60208301856121f8565b6124ec6040830184612441565b949350505050565b600060408201905061250960008301856121da565b6125166020830184612441565b9392505050565b600060a08201905061253260008301886121e9565b61253f6020830187612467565b61254c6040830186612441565b6125596060830185612441565b6125666080830184612432565b9695505050505050565b600060608201905061258560008301866121f8565b6125926020830185612441565b81810360408301526125a4818461222d565b9050949350505050565b60006040820190506125c36000830185612207565b6125d06020830184612441565b9392505050565b60006080820190506125ec6000830187612207565b6125f96020830186612441565b61260660408301856121f8565b6126136060830184612441565b95945050505050565b6000602082019050818103600083015261263581612266565b9050919050565b60006020820190508181036000830152612655816122a6565b9050919050565b600060208201905081810360008301526126758161230c565b9050919050565b600060208201905081810360008301526126958161234c565b9050919050565b600060208201905081810360008301526126b58161238c565b9050919050565b600060208201905081810360008301526126d5816123cc565b9050919050565b60006020820190506126f16000830184612441565b92915050565b600081519050919050565b600082825260208201905092915050565b600082825260208201905092915050565b600061272f8261276c565b9050919050565b60006127418261276c565b9050919050565b60008115159050919050565b6000819050919050565b600061ffff82169050919050565b600073ffffffffffffffffffffffffffffffffffffffff82169050919050565b6000819050919050565b600060ff82169050919050565b60006127ae826127b5565b9050919050565b60006127c0826127c7565b9050919050565b60006127d28261276c565b9050919050565b60005b838110156127f75780820151818401526020810190506127dc565b83811115612806576000848401525b50505050565b6000819050919050565b6000819050919050565b6000601f19601f8301169050919050565b61283a81612724565b811461284557600080fd5b50565b61285181612748565b811461285c57600080fd5b50565b61286881612754565b811461287357600080fd5b50565b61287f8161275e565b811461288a57600080fd5b50565b6128968161278c565b81146128a157600080fd5b50565b6128ad81612796565b81146128b857600080fd5b5056fea26469706673582212209bf935de805fb81a6ca21d3befabfe2a0311046fde30f411c757d6769917fbc864736f6c63430006060033",
  "immutableReferences": {
    "2531": [
      {
        "length": 32,
        "start": 4057
      },
      {
        "length": 32,
        "start": 7124
      }
    ],
    "2533": [
      {
        "length": 32,
        "start": 2185
      },
      {
        "length": 32,
        "start": 7184
      }
    ]
  },
  "source": "// SPDX-License-Identifier: MIT\r\npragma solidity 0.6.6;\r\npragma experimental ABIEncoderV2;\r\n\r\nimport \"@chainlink/contracts/src/v0.6/VRFConsumerBase.sol\";\r\nimport \"contracts/Chroma.sol\";\r\n\r\ncontract Roulette is VRFConsumerBase {\r\n    \r\n    bytes32 internal keyHash;\r\n    uint256 internal fee;\r\n    address public casino;\r\n    address public owner;\r\n    uint256 public maxBet = 1 ether;\r\n    uint256 public maxBetRatio = 100;\r\n\r\n    event SpinComplete(uint256 ballNumber);\r\n    event NewSpinDate(uint256 nextSpin);\r\n    event BetsClosed();\r\n    \r\n    Chroma internal chroma;\r\n\r\n    /*\r\n    BetTypes are as follow:\r\n      0: color\r\n      1: column\r\n      2: dozen\r\n      3: eighteen\r\n      4: modulus\r\n      5: number\r\n      \r\n    Depending on the BetType, number will be:\r\n      color: 0 for black, 1 for red\r\n      column: 0 for left, 1 for middle, 2 for right\r\n      dozen: 0 for first, 1 for second, 2 for third\r\n      eighteen: 0 for low, 1 for high\r\n      modulus: 0 for even, 1 for odd\r\n      number: number\r\n  */\r\n    \r\n    struct Bet {\r\n        address payable player;\r\n        uint8 bet_type;\r\n        uint bet_num;\r\n        uint amount;\r\n        uint16 round_bet_id;\r\n    }\r\n\r\n    struct SimpleBet {\r\n        uint8 bet_type;\r\n        uint bet_num;\r\n        uint amount;\r\n\tuint chroma_value;\r\n    }\r\n    \r\n    mapping(address => uint256) public balance;\r\n    mapping(uint16 => Bet) public book;\r\n    mapping(address => uint256) public didWin;\r\n   \r\n    uint256 private lastSpin;\r\n    uint256 private nextSpin = block.timestamp + 4 minutes;\r\n    \r\n    uint16 [] private round_bets;\r\n    address[] lastWinners;\r\n    \r\n    uint8 [] private column1 = [1, 4, 7, 10, 13, 16, 19, 22, 25, 28, 31, 34];\r\n    uint8 [] private column2 = [2, 5, 8, 11, 14, 17, 20, 23, 26, 29, 32, 35];\r\n    uint8 [] private column3 = [3, 6, 9, 12, 15, 18, 21, 24, 27, 30, 33, 36];\r\n    \r\n    uint8[] private red = [1, 3, 5, 7, 9, 12, 14, 16, 18, 19, 21, 23, 25, 27, 30, 32, 34, 36];\r\n    uint8[] private black = [2, 4, 6, 8, 10, 11, 13, 15, 17, 20, 22, 24, 26, 28, 29, 31, 33, 35];\r\n\r\n    \r\n    mapping (uint => bool) private redNums;\r\n    mapping (uint => bool) private blackNums;\r\n    \r\n    mapping (uint => bool) private col1Nums;\r\n    mapping (uint => bool) private col2Nums;\r\n    mapping (uint => bool) private col3Nums;\r\n\r\n\r\n    function setReds(uint num) private {\r\n        redNums[num]=true;\r\n    }\r\n    \r\n    function setBlacks(uint num) private {\r\n        blackNums[num]=true;\r\n    }\r\n    \r\n    function setCol1(uint num) private {\r\n        col1Nums[num]=true;\r\n    }\r\n    \r\n    function setCol2(uint num) private {\r\n        col2Nums[num]=true;\r\n    }\r\n    \r\n    function setCol3(uint num) private {\r\n        col3Nums[num]=true;\r\n    }\r\n    \r\n    function fillRedMap()  private {\r\n        for(uint i; i < red.length; i++) {\r\n            setReds(red[i]);  \r\n        }\r\n    }\r\n    \r\n    function fillBlackMap()  private {\r\n        for(uint i; i < black.length; i++) {\r\n            setBlacks(black[i]);  \r\n        }\r\n    }\r\n    \r\n    function fillCol1Map()  private {\r\n        for(uint i; i < column1.length; i++) {\r\n            setCol1(column1[i]);  \r\n        }\r\n    }\r\n    \r\n    function fillCol2Map()  private {\r\n        for(uint i; i < column2.length; i++) {\r\n            setCol2(column2[i]);  \r\n        }\r\n    }\r\n    \r\n    function fillCol3Map()  private {\r\n        for(uint i; i < column3.length; i++) {\r\n            setCol3(column3[i]);  \r\n        }\r\n    }\r\n    \r\n    function current_bets() view private returns (uint16) {\r\n        uint16 tmp = 0;\r\n        for(uint16 i = 0; i < round_bets.length; i++) {\r\n            if(book[round_bets[i]].amount > 0) {\r\n                tmp++;\r\n            }\r\n        }\r\n        return tmp;\r\n    }\r\n\r\n    \r\n    uint256 private randomResult;\r\n    \r\n    /**\r\n     * Constructor inherits VRFConsumerBase\r\n     * \r\n     * Network: MATIC\r\n     * Chainlink VRF Coordinator address: 0x8C7382F9D8f56b33781fE506E897a4F1e2d17255\r\n     * LINK token address:                0x326C977E6efc84E512bB9C30f76E30c160eD06FB\r\n     * Key Hash: 0x6e75b569a01ef56d18cab6a8e71e6600d6ce853834d4a5748b720d06f878b3a4\r\n     */\r\n    constructor(address _token) \r\n        VRFConsumerBase(\r\n            0x8C7382F9D8f56b33781fE506E897a4F1e2d17255, // VRF Coordinator\r\n            0x326C977E6efc84E512bB9C30f76E30c160eD06FB  // LINK Token\r\n       ) public\r\n    {   \r\n        keyHash = 0x6e75b569a01ef56d18cab6a8e71e6600d6ce853834d4a5748b720d06f878b3a4;\r\n        fee = 0.0001 * 10 ** 18; // 0.0001 LINK\r\n        casino = address(this);\r\n        owner = msg.sender;\r\n        chroma = Chroma (_token);\r\n        \r\n        fillRedMap();\r\n        fillBlackMap();\r\n        fillCol1Map();\r\n        fillCol2Map();\r\n        fillCol3Map();\r\n        \r\n    }\r\n    \r\n    function isRed(uint bet_num) private view returns (bool) {\r\n        return redNums[bet_num];\r\n    }\r\n    \r\n    function isBlack(uint bet_num) private view returns (bool) {\r\n        return blackNums[bet_num];\r\n    }\r\n    \r\n    function isColumn1(uint bet_num) private view returns (bool) {\r\n        return col1Nums[bet_num];\r\n    }\r\n    \r\n    function isColumn2(uint bet_num) private view returns (bool) {\r\n        return col2Nums[bet_num];\r\n    }\r\n    \r\n    function isColumn3(uint bet_num) private view returns (bool) {\r\n        return col3Nums[bet_num];\r\n    }\r\n    \r\n    function maxBetValue () external view returns(uint256) {\r\n        uint256 _maxBet = checkCasinoBalance() / maxBetRatio;\r\n        return _maxBet;\r\n    }\r\n\r\n    function checkMaxBet (uint amount) public view {\r\n        require(amount <= maxBet, \"This bet exceed max possible bet\");\r\n    }\r\n\r\n    modifier onlyCasino() {\r\n        require(msg.sender == casino, \"This can only be called by the contract itself.\");\r\n        _;\r\n    }\r\n\r\n    modifier onlyOwner() {\r\n        require(msg.sender == owner, \"This can only be called by the contract owner.\");\r\n        _;\r\n    }\r\n    \r\n    function addBalance(uint256 amount) external {\r\n        bool sent = chroma.transferFrom(msg.sender,casino,amount);\r\n\t    require(sent, \"CHROMA transfer failed\");\r\n        balance[msg.sender] += amount;\r\n        maxBet = checkCasinoBalance() / maxBetRatio;\r\n    }\r\n\r\n    function getNextSpin() external view returns (uint256) {\r\n        return nextSpin;\r\n    }\r\n\r\n    function getLastSpin() external view returns (uint256) {\r\n        return lastSpin;\r\n    }\r\n    \r\n    function checkBalance() external view returns (uint256) {\r\n        return balance[msg.sender];\r\n    }\r\n    \r\n    function checkCasinoBalance() private view returns(uint256) {\r\n        return chroma.balanceOf(casino);\r\n    }\r\n\r\n    function checkDidWin() external view returns(uint256){\r\n        return didWin[msg.sender];\r\n    }\r\n\r\n    \r\n    //in wei number\r\n    function Withdraw(uint256 amount) external {\r\n\t    require(balance[msg.sender] >= amount);\r\n\t    balance[msg.sender] -= amount;\r\n\t    bool sent = chroma.transfer(msg.sender,amount);\r\n\t    require(sent, \"CHROMA transfer failed\");\r\n\t    maxBet = checkCasinoBalance() / maxBetRatio;\r\n\t}\r\n\t\r\n\t\r\n    uint16 private _bet_id = 0;\r\n    \r\n    function betting(SimpleBet[] calldata bets) external {\r\n        uint256 totalAmount=0;\r\n        for(uint index=0; index<bets.length; index++){\r\n            totalAmount += bets[index].amount;\r\n        }\r\n\r\n        checkMaxBet(totalAmount);\r\n\r\n        require(balance[msg.sender] >= totalAmount);\r\n        balance[owner] += totalAmount*2/100;\r\n        balance[msg.sender] -= totalAmount;\r\n        address payable bettor = msg.sender;\r\n\r\n        for(uint index=0; index<bets.length; index++){        \r\n            //store request id and address\r\n            Bet memory cur_bet = Bet(bettor,bets[index].bet_type, bets[index].bet_num, bets[index].amount*98/100, _bet_id++);\r\n            book[_bet_id] = cur_bet;\r\n            round_bets.push(_bet_id);\r\n        }\r\n    }\r\n\r\n    function upTime() external onlyOwner {\r\n        nextSpin = block.timestamp + 1 minutes;\r\n        emit NewSpinDate(nextSpin);\r\n    }\r\n    \r\n\r\n    //spinWheel\r\n    function spinWheel() external onlyOwner {\r\n        for(uint i = 0; i < round_bets.length; i++) {\r\n            Bet memory _curBet = book[round_bets[i]];\r\n            address payable _bettor = _curBet.player;\r\n            didWin[_bettor]=0;          \r\n        }\r\n        \r\n        emit BetsClosed();\r\n        //Request randomness, get request id\r\n        bytes32 current_request;\r\n        current_request = getRandomNumber();\r\n    }\r\n    \r\n\r\n    /** \r\n     * Requests randomness from a user-provided seed\r\n     */\r\n    function getRandomNumber() private returns (bytes32 requestId) {\r\n        require(LINK.balanceOf(address(this)) > fee, \"Not enough LINK - fill contract with faucet\");\r\n        return requestRandomness(keyHash, fee);\r\n    }\r\n\r\n    /**\r\n     * Callback function used by VRF Coordinator\r\n     */\r\n    function fulfillRandomness(bytes32 requestId, uint256 randomness) internal override {\r\n        //delete lastWinners from memory\r\n        delete lastWinners;\r\n        lastSpin = nextSpin;\r\n        \r\n        randomResult = randomness;\r\n        uint _spinResult = randomResult % 36;\r\n        \r\n        for(uint i = 0; i < round_bets.length; i++) {\r\n            \r\n            Bet memory _curBet = book[round_bets[i]];\r\n            uint bet_type = _curBet.bet_type;\r\n            uint _betNum = _curBet.bet_num;\r\n            address payable _bettor = _curBet.player;\r\n            uint _amount = _curBet.amount;\r\n\r\n            //pay if they are a winner!\r\n            if (_spinResult == _betNum && bet_type==5) {\r\n                balance[_bettor] += _amount * 36;\r\n                didWin[_bettor]=2;\r\n                lastWinners.push(_bettor);\r\n            } else if (_spinResult > 0 && _spinResult % 2 == _betNum && bet_type==4) {\r\n                balance[_bettor] += _amount * 2;\r\n                didWin[_bettor]=2;\r\n                lastWinners.push(_bettor);\r\n            } else if ((_spinResult < 19 && _spinResult > 0 && _betNum == 0 || _spinResult > 18 && _betNum > 18 && _spinResult < 37 && _betNum == 1) && bet_type==3) {\r\n                balance[_bettor] += _amount * 2;\r\n                didWin[_bettor]=2;\r\n                lastWinners.push(_bettor);\r\n            } else if ((_spinResult < 13 && _spinResult > 0 && _betNum == 0 || _spinResult > 12 && _spinResult < 25 && _betNum == 1 || _spinResult > 24 && _spinResult < 37 && _betNum == 2) && bet_type==2) {\r\n                balance[_bettor] += _amount * 3;\r\n                didWin[_bettor]=2;\r\n                lastWinners.push(_bettor);\r\n            } else if (_spinResult > 0 && (_betNum==0 && isColumn1(_spinResult) || _betNum==1 && isColumn2(_spinResult) || _betNum==2  && isColumn3(_spinResult)) && bet_type==1) {\r\n                balance[_bettor] += _amount * 3;\r\n                didWin[_bettor]=2;\r\n                lastWinners.push(_bettor);\r\n            } else if (_spinResult > 0 && (_betNum==0 && isBlack(_spinResult) || _betNum==1 && isRed(_spinResult)) && bet_type==0) {\r\n                balance[_bettor] += _amount * 2;\r\n                didWin[_bettor]=2;\r\n                lastWinners.push(_bettor);\r\n            } else {\r\n                didWin[_bettor]=1;\r\n            }\r\n\r\n            maxBet = checkCasinoBalance() / maxBetRatio;            \r\n        }\r\n\r\n        delete round_bets;\r\n\r\n        nextSpin = lastSpin + 2 minutes;\r\n\r\n        emit SpinComplete(_spinResult);\r\n        emit NewSpinDate(nextSpin);\r\n    }\r\n}",
  "sourcePath": "C:/Users/MSI/Documents/GitHub/Chromatec-casino-web/web/Chromatec Casino/contracts/Roulette.sol",
  "compiler": {
    "name": "solc",
    "version": "0.6.6+commit.6c089d02.Emscripten.clang"
  },
  "schemaVersion": "3.4.1",
  "updatedAt": "2021-09-03T14:19:56.000Z",
  "networkType": "ethereum",
  "devdoc": {
    "methods": {}
  },
  "userdoc": {
    "methods": {
      "constructor": "Constructor inherits VRFConsumerBase \r Network: MATIC Chainlink VRF Coordinator address: 0x8C7382F9D8f56b33781fE506E897a4F1e2d17255 LINK token address:                0x326C977E6efc84E512bB9C30f76E30c160eD06FB Key Hash: 0x6e75b569a01ef56d18cab6a8e71e6600d6ce853834d4a5748b720d06f878b3a4"
    }
  }
}