{
  "contractName": "Lottery",
  "abi": [
    {
      "inputs": [],
      "stateMutability": "nonpayable",
      "type": "constructor"
    },
    {
      "inputs": [],
      "name": "latestWinner",
      "outputs": [
        {
          "internalType": "address",
          "name": "",
          "type": "address"
        }
      ],
      "stateMutability": "view",
      "type": "function",
      "constant": true
    },
    {
      "inputs": [],
      "name": "maxTickets",
      "outputs": [
        {
          "internalType": "uint256",
          "name": "",
          "type": "uint256"
        }
      ],
      "stateMutability": "view",
      "type": "function",
      "constant": true
    },
    {
      "inputs": [],
      "name": "name",
      "outputs": [
        {
          "internalType": "string",
          "name": "",
          "type": "string"
        }
      ],
      "stateMutability": "view",
      "type": "function",
      "constant": true
    },
    {
      "inputs": [],
      "name": "randomNum",
      "outputs": [
        {
          "internalType": "uint256",
          "name": "",
          "type": "uint256"
        }
      ],
      "stateMutability": "view",
      "type": "function",
      "constant": true
    },
    {
      "inputs": [],
      "name": "remainingTickets",
      "outputs": [
        {
          "internalType": "uint256",
          "name": "",
          "type": "uint256"
        }
      ],
      "stateMutability": "view",
      "type": "function",
      "constant": true
    },
    {
      "inputs": [],
      "name": "ticketCount",
      "outputs": [
        {
          "internalType": "uint256",
          "name": "",
          "type": "uint256"
        }
      ],
      "stateMutability": "view",
      "type": "function",
      "constant": true
    },
    {
      "inputs": [],
      "name": "ticketPrice",
      "outputs": [
        {
          "internalType": "uint256",
          "name": "",
          "type": "uint256"
        }
      ],
      "stateMutability": "view",
      "type": "function",
      "constant": true
    },
    {
      "inputs": [
        {
          "internalType": "uint256",
          "name": "",
          "type": "uint256"
        }
      ],
      "name": "tickets",
      "outputs": [
        {
          "internalType": "address payable",
          "name": "",
          "type": "address"
        }
      ],
      "stateMutability": "view",
      "type": "function",
      "constant": true
    },
    {
      "inputs": [
        {
          "internalType": "address",
          "name": "",
          "type": "address"
        }
      ],
      "name": "winnings",
      "outputs": [
        {
          "internalType": "uint256",
          "name": "",
          "type": "uint256"
        }
      ],
      "stateMutability": "view",
      "type": "function",
      "constant": true
    },
    {
      "inputs": [],
      "name": "Buy",
      "outputs": [],
      "stateMutability": "payable",
      "type": "function",
      "payable": true
    },
    {
      "inputs": [],
      "name": "Withdraw",
      "outputs": [],
      "stateMutability": "payable",
      "type": "function",
      "payable": true
    },
    {
      "inputs": [],
      "name": "chooseWinner",
      "outputs": [],
      "stateMutability": "nonpayable",
      "type": "function"
    },
    {
      "inputs": [],
      "name": "numTicketsBought",
      "outputs": [
        {
          "internalType": "uint256",
          "name": "",
          "type": "uint256"
        }
      ],
      "stateMutability": "view",
      "type": "function",
      "constant": true
    },
    {
      "inputs": [],
      "name": "getRemainingTickets",
      "outputs": [
        {
          "internalType": "uint256",
          "name": "",
          "type": "uint256"
        }
      ],
      "stateMutability": "view",
      "type": "function",
      "constant": true
    },
    {
      "inputs": [],
      "name": "checkBalance",
      "outputs": [
        {
          "internalType": "uint256",
          "name": "",
          "type": "uint256"
        }
      ],
      "stateMutability": "view",
      "type": "function",
      "constant": true
    }
  ],
  "bytecode": "0x60806040526040518060400160405280600781526020017f4c6f7474657279000000000000000000000000000000000000000000000000008152506002908051906020019061004f92919061008b565b50606460035560006004556000600555600060065567016345785d8a000060085534801561007c57600080fd5b50600354600481905550610130565b828054600181600116156101000203166002900490600052602060002090601f016020900481019282601f106100cc57805160ff19168380011785556100fa565b828001600101855582156100fa579182015b828111156100f95782518255916020019190600101906100de565b5b509050610107919061010b565b5090565b61012d91905b80821115610129576000816000905550600101610111565b5090565b90565b6109e58061013f6000396000f3fe6080604052600436106100e85760003560e01c806370cc89ad1161008a578063cd38aa8711610059578063cd38aa8714610365578063cfbd900f1461037c578063ea3a1499146103a7578063f630aa651461040c576100e8565b806370cc89ad146102da578063974c86b5146103055780639b8947031461030f578063c71daccb1461033a576100e8565b80633665a93a116100c65780633665a93a146101ff57806350b447121461022a57806357ea89b6146102a55780635d504832146102af576100e8565b806306ef53e0146100ed57806306fdde03146101445780631209b1f6146101d4575b600080fd5b3480156100f957600080fd5b50610102610437565b604051808273ffffffffffffffffffffffffffffffffffffffff1673ffffffffffffffffffffffffffffffffffffffff16815260200191505060405180910390f35b34801561015057600080fd5b5061015961045d565b6040518080602001828103825283818151815260200191508051906020019080838360005b8381101561019957808201518184015260208101905061017e565b50505050905090810190601f1680156101c65780820380516001836020036101000a031916815260200191505b509250505060405180910390f35b3480156101e057600080fd5b506101e96104fb565b6040518082815260200191505060405180910390f35b34801561020b57600080fd5b50610214610501565b6040518082815260200191505060405180910390f35b34801561023657600080fd5b506102636004803603602081101561024d57600080fd5b81019080803590602001909291905050506105a4565b604051808273ffffffffffffffffffffffffffffffffffffffff1673ffffffffffffffffffffffffffffffffffffffff16815260200191505060405180910390f35b6102ad6105e0565b005b3480156102bb57600080fd5b506102c4610703565b6040518082815260200191505060405180910390f35b3480156102e657600080fd5b506102ef610709565b6040518082815260200191505060405180910390f35b61030d610713565b005b34801561031b57600080fd5b506103246107cb565b6040518082815260200191505060405180910390f35b34801561034657600080fd5b5061034f6107d1565b6040518082815260200191505060405180910390f35b34801561037157600080fd5b5061037a61081b565b005b34801561038857600080fd5b50610391610945565b6040518082815260200191505060405180910390f35b3480156103b357600080fd5b506103f6600480360360208110156103ca57600080fd5b81019080803573ffffffffffffffffffffffffffffffffffffffff16906020019092919050505061094b565b6040518082815260200191505060405180910390f35b34801561041857600080fd5b50610421610963565b6040518082815260200191505060405180910390f35b600760009054906101000a900473ffffffffffffffffffffffffffffffffffffffff1681565b60028054600181600116156101000203166002900480601f0160208091040260200160405190810160405280929190818152602001828054600181600116156101000203166002900480156104f35780601f106104c8576101008083540402835291602001916104f3565b820191906000526020600020905b8154815290600101906020018083116104d657829003601f168201915b505050505081565b60085481565b6000806000905060008090505b60018054905081101561059c573373ffffffffffffffffffffffffffffffffffffffff166001828154811061053f57fe5b9060005260206000200160009054906101000a900473ffffffffffffffffffffffffffffffffffffffff1673ffffffffffffffffffffffffffffffffffffffff16141561058f5781806001019250505b808060010191505061050e565b508091505090565b600181815481106105b157fe5b906000526020600020016000915054906101000a900473ffffffffffffffffffffffffffffffffffffffff1681565b60008060003373ffffffffffffffffffffffffffffffffffffffff1673ffffffffffffffffffffffffffffffffffffffff168152602001908152602001600020541161062b57600080fd5b60008060003373ffffffffffffffffffffffffffffffffffffffff1673ffffffffffffffffffffffffffffffffffffffff16815260200190815260200160002054905060008060003373ffffffffffffffffffffffffffffffffffffffff1673ffffffffffffffffffffffffffffffffffffffff16815260200190815260200160002081905550600854810290503373ffffffffffffffffffffffffffffffffffffffff166108fc829081150290604051600060405180830381858888f193505050501580156106ff573d6000803e3d6000fd5b5050565b60045481565b6000600454905090565b600854341461072157600080fd5b6000600854348161072e57fe5b04905060045481600454031061074357600080fd5b806004600082825403925050819055506001339080600181540180825580915050600190039060005260206000200160009091909190916101000a81548173ffffffffffffffffffffffffffffffffffffffff021916908373ffffffffffffffffffffffffffffffffffffffff16021790555060056000815480929190600101919050555050565b60035481565b60006008546000803373ffffffffffffffffffffffffffffffffffffffff1673ffffffffffffffffffffffffffffffffffffffff1681526020019081526020016000205402905090565b60006005541161082a57600080fd5b600554600143034060001c8161083c57fe5b0660068190555060016006548154811061085257fe5b9060005260206000200160009054906101000a900473ffffffffffffffffffffffffffffffffffffffff16600760006101000a81548173ffffffffffffffffffffffffffffffffffffffff021916908373ffffffffffffffffffffffffffffffffffffffff160217905550600554600080600760009054906101000a900473ffffffffffffffffffffffffffffffffffffffff1673ffffffffffffffffffffffffffffffffffffffff1673ffffffffffffffffffffffffffffffffffffffff168152602001908152602001600020819055506000600581905550600354600481905550600160006109439190610969565b565b60055481565b60006020528060005260406000206000915090505481565b60065481565b5080546000825590600052602060002090810190610987919061098a565b50565b6109ac91905b808211156109a8576000816000905550600101610990565b5090565b9056fea2646970667358221220199b57b99d4b94f973b0fcae92450aa699139e3753a49c7bf938dae07536ae2864736f6c63430006060033",
  "immutableReferences": {},
  "source": "// SPDX-License-Identifier: GPL-3.0\r\npragma solidity ^0.6.0;\r\n\r\ncontract Lottery { \r\n\r\n    mapping(address => uint256) public winnings;\r\n    address payable [] public tickets;\r\n\r\n\t// -------------------- variables -----------------------------------------\t\r\n\tstring public name = \"Lottery\";\r\n\tuint256 public maxTickets = 100;\r\n\tuint256 public remainingTickets = 0;\r\n\tuint public ticketCount = 0;\r\n\tuint256 public randomNum = 0;\r\n\taddress public latestWinner;\r\n\t//wei\r\n\tuint256 public ticketPrice = 100000000000000000;\r\n\r\n\tconstructor () public {\r\n\t    remainingTickets = maxTickets;\r\n\t} \r\n\t\r\n\tfunction Buy() public payable {\r\n\t    \r\n\t    require(msg.value == ticketPrice);\r\n\t    \r\n\t    uint256 val = msg.value / ticketPrice;\r\n\t    \r\n\t    require (remainingTickets - val < remainingTickets);\r\n\t    \r\n\t    remainingTickets -= val; //remove from unspent supply\r\n\t    \r\n\t    tickets.push(payable(msg.sender));\r\n\t    ticketCount++;\r\n\t    \r\n\t}\r\n\t\r\n\tfunction Withdraw() public payable {\r\n\t    require(winnings[msg.sender] > 0);\r\n\t    \r\n\t    uint256 amountToWithdraw = winnings[msg.sender];\r\n\t    winnings[msg.sender] = 0;\r\n\t    \r\n\t    //in wei number\r\n\t    amountToWithdraw *= ticketPrice;\r\n\t    \r\n\t    payable(msg.sender).transfer(amountToWithdraw);\r\n\t    \r\n\t}\r\n\t\r\n\tfunction chooseWinner() public {\r\n\t    \r\n\t    require(ticketCount > 0);\r\n\t    randomNum = uint(blockhash(block.number-1)) % ticketCount;\r\n\t    \r\n\t    latestWinner = tickets[randomNum];\r\n\t    winnings[latestWinner] = ticketCount;\r\n\t    ticketCount = 0;\r\n\t    remainingTickets = maxTickets;\r\n\t    \r\n\t    delete tickets;\r\n\t}\r\n\r\n\r\n\tfunction numTicketsBought() public view returns(uint256) {\r\n\t\tuint num = 0;\r\n\t\tfor(uint i = 0; i<tickets.length; i++) {\r\n\t\t\tif(tickets[i] == msg.sender) {\r\n\t\t\t\tnum++;\r\n\t\t\t}\r\n\t\t}\r\n\t\treturn num;\r\n\t}\r\n\r\n\tfunction getRemainingTickets() public view returns(uint256) {\r\n\t\treturn remainingTickets;\r\n\t}\r\n\r\n\tfunction checkBalance() external view returns (uint256) {\r\n\t\treturn winnings[msg.sender] * ticketPrice;\r\n\t}\r\n\r\n}",
  "sourcePath": "C:/Users/MSI/Documents/GitHub/Chromatec-casino-web/web/Chromatec Casino/contracts/Lottery.sol",
  "compiler": {
    "name": "solc",
    "version": "0.6.6+commit.6c089d02.Emscripten.clang"
  },
  "schemaVersion": "3.4.1",
  "updatedAt": "2021-07-06T11:33:31.610Z",
  "networkType": "ethereum",
  "devdoc": {
    "methods": {}
  },
  "userdoc": {
    "methods": {}
  }
}